:020000040800F2
:1000000078040020C1010008450200083D020008F4
:1000100041020008350200080D040008000000003D
:100020000000000000000000000000007502000851
:10003000390200080000000071020008790200087F
:10004000DB010008DB010008DB010008DB01000820
:10005000DB010008DB010008DB010008DB01000810
:10006000DB010008DB010008DB010008DB01000800
:10007000DB010008DB010008DB010008DB010008F0
:10008000DB010008DB010008DB010008DB010008E0
:10009000DB010008DB010008DB010008DB010008D0
:1000A000DB010008DB010008DB010008DB010008C0
:1000B000DB010008DB010008DB010008DB010008B0
:1000C000DB010008DB010008DB010008DB010008A0
:1000D000DB010008DB010008DB010008DB01000890
:1000E000DB010008DB010008DB010008DB01000880
:1000F000DB010008DB010008DB010008DB01000870
:10010000DB010008DB010008DB010008DB0100085F
:10011000DB010008DB010008DB010008DB0100084F
:10012000DB010008DB010008DB010008DB0100083F
:10013000DB010008DB010008DB010008DB0100082F
:10014000DB010008DB010008DB010008DB0100081F
:10015000DB010008DB010008DB010008DB0100080F
:10016000DB010008DB010008DB010008DB010008FF
:10017000DB010008DB010008DB01000800000000D3
:10018000DB010008DB010008DB010008DB010008DF
:10019000DB010008DB010008DB01000800000000B3
:1001A000DB010008DB010008DB010008DFF80CD0F0
:1001B00000F02EF8004800476D0800087804002081
:1001C0000648804706480047FEE7FEE7FEE7FEE7F1
:1001D000FEE7FEE7FEE7FEE7FEE7FEE78502000832
:1001E000AD01000830B50B46014600202022012455
:1001F00009E021FA02F59D4205D303FA02F5491BF5
:1002000004FA02F52844151EA2F10102F1DC30BD0A
:10021000064C074D06E0E06840F0010394E8070053
:1002200098471034AC42F6D3FFF7C4FFF40D000832
:10023000140E000800BFFEE700BFFEE700BFFEE7A8
:1002400000BFFEE700BFFEE710B5002807DA0A0787
:10025000140E054A00F00F031B1FD45403E00A07D5
:10026000130E024A135410BD18ED00E000E400E044
:1002700000BFFEE700BFFEE710B500F0D9FA00F0BE
:100280009FF910BD1CB55D48006840F470005B49E3
:1002900008605B48006840F001005949086000BFF1
:1002A0005748006800F002000028F9D05448083090
:1002B000006800F00C0008286ED100BF00200190FB
:1002C00002E00198401C019001985028F9D34C4855
:1002D000083000680090009820F0F000009000982E
:1002E00040F08000009046490831009808600020E6
:1002F000019002E00198401C019001985028F9D328
:100300003F48083000680090009820F0F00000900E
:10031000009840F09000009039490831009808603A
:100320000020019002E00198401C019001985028A3
:10033000F9D33348083000680090009820F0F000AE
:100340000090009840F0A00000902D4908310098DE
:1003500008600020019002E00198401C0190019883
:100360005028F9D32648083000680090009820F003
:10037000F0000090009840F0B00000902049083153
:10038000009808600020019002E00198401C019054
:1003900001985028F9D300BF19480830006820F0B0
:1003A0000300174908310860C82000F0FBF8144822
:1003B000006814490840124908600846006820F4A3
:1003C0008020086000200E490831086000BF0C48FA
:1003D0000830006800200028F9D10B480849091DA1
:1003E0000860002006490C31086000F0CBFB0021BA
:1003F0004FF0006000F06AFA1CBD000088ED00E0DC
:1004000000380240FFFFF6FE1030002400BFFEE778
:100410000FB4054B10B503A9044A029800F018F870
:1004200010BC5DF814FB0000D90500087000002026
:1004300002E008C8121F08C1002AFAD170477047AD
:10044000002001E001C1121F002AFBD1704700000B
:100450002DE9FF4F89B09B460446002506E025287C
:100460000BD05A460B999047641C6D1C20780028CD
:10047000F5D10DB02846BDE8F08F0027B84601221F
:10048000474900E0074314F8013F203B02FA03F01C
:100490000842F7D120782E2819D114F8010F47F01F
:1004A00004072A280ED06FF02F022078A0F1300127
:1004B00009290CD808EB880102EB410100EB010887
:1004C000641CF2E70A98641C50F8048B0A902078A8
:1004D0000028CED0642808D0692806D075281ED000
:1004E0005A460B9990476D1C58E00A994FF00A093B
:1004F00001C90A91002802DA40422D2102E03905A3
:1005000004D52B218DF82010012103E0F90704D038
:100510002021F7E78A4608AE0DE00021FAE70A99A4
:100520004FF00A0901C90A91F7E74946FFF75AFE59
:10053000303106F8011D0028F7D1ADEB060000F1BF
:100540002009780701D44FF00108C84502DDA8EB67
:10055000090000E000208046002706E008A85A466F
:10056000C05D0B9990476D1C7F1C5745F6DB04E07E
:1005700030205A460B9990476D1CB8F10001A8F144
:100580000108F5DC05E016F8010B5A460B99904777
:100590006D1CB9F10001A9F10109F4DC641C65E7E7
:1005A0000928010008B50021009102E00099491CCA
:1005B000009100EB8001009AB2EB410FF6D308BD29
:1005C0000448006820B103480068401E01490860E3
:1005D000704700000400002070B504460D46E1B2EB
:1005E000054800F06FFB00BF0721034800F0E1FB66
:1005F0000028F9D0204670BD001001400048704727
:100600000003030370B5054600242748854200D146
:1006100000BF4FF4406000F0F7F9244931F81400AE
:1006200000F0F2F9224850F824200721214800F078
:1006300087F8214850F8242007211E4800F080F850
:100640001B4850F82430012202211A4800F0A7F874
:10065000174850F8243002220021164800F0C6F84E
:10066000154850F8243001220221124800F097F872
:10067000114850F82430022200210E4800F0B6F84C
:10068000284600F023FB4FF4E131284600F0A6FA9B
:100690000421284600F09DFB0821284600F0A1FB1C
:1006A000284600F081FB70BD0010014024000020AE
:1006B00028000020000002402C00002010B5044655
:1006C000104931F8140000F09FF90F4951F8243017
:1006D0000E4951F824000022012100F060F80A4977
:1006E00051F82430094951F824000222002100F079
:1006F0007DF8054850F82400044951F82410886218
:1007000010BD000030000020180000200C00002068
:10071000034951F82010034A52F820209162704793
:10072000180000200C000020034951F82010034A53
:1007300052F8202091617047180000200C00002022
:10074000F0B503461C6A5D6A00200DE00126864074
:1007500016403EB187000F26BE40B443860001FA22
:1007600006F63443461CB0B20828EFD3082011E047
:100770000126864016405EB1A0F10806B7000F269C
:10078000BE40B543A0F10806B60001FA06F63543AF
:10079000461CB0B21028EBD31C625D62F0BDF0B510
:1007A00004460D4616462168E268002019E001273C
:1007B00087401F409FB14FEA400C032707FA0CF710
:1007C000B943470005FA07F739434FEA400C0327BE
:1007D00007FA0CF7BA43470006FA07F73A43471CF3
:1007E000B8B21028E3D32160E260F0BDF0B50C464A
:1007F0001546012C03D146681E43466002E0466858
:100800009E434660826800210DE001268E401E4016
:100810003EB14F000326BE40B2434E0005FA06F635
:1008200032434E1CB1B21029EFD38260F0BD0000FC
:1008300010B50D48006888B10B480068B0F5FA7F24
:1008400003D20020FFF770FF02E00020FFF760FFF7
:1008500005480068401E0449086003E04FF47A70C0
:100860000149086010BD00000000002000240020A5
:10087000FFF724FF0848FFF7C5FE00F087F9FFF7F0
:10088000BDFE0446210EC4F30723C4F3074203A0B0
:10089000FFF7BEFD00BFFEE7001001400D0A474410
:1008A00033324634787820736572696573206669DF
:1008B000726D776172652076657273696F6E3A202A
:1008C0005625642E25642E2564000000034A0A4044
:1008D0000243034B1A60BFF34F8F704780FFFF1F27
:1008E00008ED00E02DE9F04F8CB0064600200A909C
:1008F0003EA090E8004CC068CDE905BECDF810A040
:1009000007900FF2EC0ADAE9000ACDE9020A0FF2C9
:10091000E00ADAE9000ACDE9000A38480068C0F3C5
:1009200081000B900B9820B1012804D0022828D117
:1009300003E0334927E0334925E03048001F0068D1
:1009400000F03F072D48001F0068C0F3881C2B48AB
:10095000001F0068C0F30140401C4FEA40092748CF
:10096000001F006800F48008B8F5800F01D1254B06
:1009700000E0234BB3FBF7F000FB0CF0B0FBF9F108
:1009800001E01F4900BF00BF1C480068C0F303140A
:1009900004A8055D21FA05F218480068C0F3822416
:1009A00002A8055D22FA05F0099014480068C0F31A
:1009B00042341DF8045022FA05F0089036B1012E99
:1009C00006D0022E06D0032E0AD106E00A9108E0D6
:1009D0000A9206E009980A9003E008980A9000E05D
:1009E00000BF00BF0A980CB0BDE8F08F0000000007
:1009F000000000000102030406070809083802404D
:100A00000024F40040787D01074A02EB9011D1F8F0
:100A1000001800F01F0301229A401143024B03EB20
:100A20009012C2F80018704700300240074A02EBEB
:100A30009011D1F8001800F01F0301229A40914351
:100A4000024B03EB9012C2F80018704700300240CE
:100A5000074A02EB9011D1F8001800F01F030122A1
:100A60009A401143024B03EB9012C2F800187047F2
:100A70000030024008B5002000213F4A126842F4CD
:100A800080323D4B1A6000BF401C3B4A126802F4A2
:100A9000003119B94FF6FF729042F5D1364A12680B
:100AA00002F4003232B900BF334A126802F4003255
:100AB000002AF9D0304A4032126842F080522E4B60
:100AC00040331A602D4A126842F440422B4B1A60A0
:100AD000294A08321268284B08331A601A461268ED
:100AE00042F400421A601A46126842F4A0521A6098
:100AF000234A1B1F1A601A1F126842F080721B1FC4
:100B00001A6000BF1C4A126802F00072002AF9D075
:100B10001A4A126842F48032184B1A6000BF174A12
:100B2000526802F48032002AF9D0144A126842F462
:100B30000032124B1A6000BF104A526802F40032B1
:100B4000002AF9D00C4A083212680092009A22F06A
:100B500003020092009A42F002020092064B083310
:100B6000009A1A6000BF044A0832126802F00802B4
:100B7000002AF8D008BD0000003802400070004094
:100B80001964400910B5FFF775FF10BD10B5124884
:100B900000684FF47A71B0FBF1F4601EB0F1807F11
:100BA00001D301200FE0601E4FF0E02148610F21CA
:100BB0004FF0FF30FFF748FB00204FF0E021886145
:100BC00007200861002008B100BFFEE70021481E91
:100BD000FFF73AFB10BD0000080000202DE9F047A8
:100BE00004460D460027B846B94600263349601A28
:100BF0008C4235D00CDC32482044E8B1B0F5806F2F
:100C00001FD0B0F5006F21D0B0F5406F32D122E097
:100C1000B0F5806F29D0B0F5184F03D0B0F51C4F58
:100C200028D104E00320FFF75DFE074623E0032000
:100C3000FFF758FE07461EE00220FFF753FE074667
:100C400019E00220FFF74EFE074614E00220FFF7EE
:100C500049FE07460FE00220FFF744FE07460AE080
:100C60000220FFF73FFE074605E00220FFF73AFEAD
:100C7000074600E000BF00BFE06800F4004070B12C
:100C8000780000EB5500B0FBF5F64FF6F07006EA81
:100C90000008C6F3420948EA0900A0600CE007EB2F
:100CA0005500B0FBF5F64FF6F07006EA000806F0C6
:100CB0000F0948EA0900A060BDE8F087007800400D
:100CC00000BCFFBFC1F308024260704710B5044684
:100CD0003349601A8C424DD00CDC32482044E0B1DC
:100CE000B0F5806F22D0B0F5006F31D0B0F5406F15
:100CF00052D136E0B0F5806F45D0B0F5184F03D033
:100D0000B0F51C4F48D11AE040F60410FFF7A0FEE2
:100D100040F60410FFF78AFE3FE040F61100FFF7AF
:100D200097FE40F61100FFF781FE36E040F6120014
:100D3000FFF78EFE40F61200FFF778FE2DE040F63A
:100D40000510FFF785FE40F60510FFF76FFE24E063
:100D500040F61300FFF77CFE40F61300FFF766FE37
:100D60001BE040F61400FFF773FE40F61400FFF797
:100D70005DFE12E040F61E00FFF76AFE40F61E0020
:100D8000FFF754FE09E040F61F00FFF761FE40F652
:100D90001F00FFF74BFE00E000BF00BF10BD0000CA
:100DA0000078004000BCFFBFC16841F40051C16041
:100DB000704730B50246002002EB91131B6801F02A
:100DC0001F050124AC4023400BB1012000E00020AE
:100DD00030BD0A460021C16821F004011143C16001
:100DE00070470A460021C16821F008011143C16023
:100DF00070470000140E000800000020740000007E
:100E000030040008880E000874000020040400006C
:100E100040040008000000000000000000C2EB0BCE
:100E200000100240001002400014024004000000C4
:100E3000080000000004000004110000000200008F
:100E400000040000040C040C050C0000000002402B
:100E500000080240000402400100000000200000E1
:100E600000400000000C020C010C0000010000001A
:100E70000020000000400000000201000D0E0628C6
:080E8000280000000000000042
:04000005080001AD41
:00000001FF
